{
  "contractName": "Sponsor",
  "abi": [
    {
      "constant": false,
      "inputs": [
        {
          "internalType": "uint256",
          "name": "amount",
          "type": "uint256"
        }
      ],
      "name": "add",
      "outputs": [],
      "payable": false,
      "stateMutability": "nonpayable",
      "type": "function"
    },
    {
      "constant": true,
      "inputs": [],
      "name": "get",
      "outputs": [
        {
          "internalType": "uint256",
          "name": "",
          "type": "uint256"
        }
      ],
      "payable": false,
      "stateMutability": "view",
      "type": "function"
    }
  ],
  "bytecode": "0x608060405234801561001057600080fd5b5060ca8061001f6000396000f3fe6080604052348015600f57600080fd5b506004361060325760003560e01c80631003e2d21460375780636d4ce63c146062575b600080fd5b606060048036036020811015604b57600080fd5b8101908080359060200190929190505050607e565b005b6068608c565b6040518082815260200191505060405180910390f35b806000540160008190555050565b6000805490509056fea265627a7a723158207488765d51d79e37e15cc22def4a1713d3602e6f689fe32205e07300d92640d964736f6c63430005100032",
  "source": "pragma solidity >=0.4.21 <0.7.0;\n\n\ncontract Sponsor {\n    uint256 total; // 데이터 Type 데이터명\n\n    function add(uint256 amount) public {\n        //add 메소드\n        total = total + amount;\n    }\n\n    function get() public view returns (uint256) {\n        //get 메소드\n        return total;\n    }\n}\n",
  "sourcePath": "D:\\multicampus_coding\\blockchain\\ether\\ether_sponsor\\truffle\\contracts\\Sponsor.sol",
  "compiler": {
    "name": "solc",
    "version": "0.5.16+commit.9c3226ce.Emscripten.clang"
  },
  "schemaVersion": "3.1.0",
  "updatedAt": "2020-04-17T01:34:04.754Z",
  "networkType": "ethereum",
  "devdoc": {
    "methods": {}
  },
  "userdoc": {
    "methods": {}
  }
}