{
  "contractName": "SimpleStorage",
  "abi": [
    {
      "inputs": [],
      "payable": false,
      "stateMutability": "nonpayable",
      "type": "constructor"
    },
    {
      "constant": false,
      "inputs": [
        {
          "internalType": "uint256",
          "name": "x",
          "type": "uint256"
        }
      ],
      "name": "set",
      "outputs": [],
      "payable": false,
      "stateMutability": "nonpayable",
      "type": "function"
    },
    {
      "constant": true,
      "inputs": [],
      "name": "get",
      "outputs": [
        {
          "internalType": "uint256",
          "name": "",
          "type": "uint256"
        }
      ],
      "payable": false,
      "stateMutability": "view",
      "type": "function"
    },
    {
      "constant": false,
      "inputs": [
        {
          "internalType": "bytes32",
          "name": "candidate",
          "type": "bytes32"
        }
      ],
      "name": "addCandidate",
      "outputs": [],
      "payable": false,
      "stateMutability": "nonpayable",
      "type": "function"
    },
    {
      "constant": false,
      "inputs": [
        {
          "internalType": "bytes32",
          "name": "candidate",
          "type": "bytes32"
        }
      ],
      "name": "voteForCandidate",
      "outputs": [],
      "payable": false,
      "stateMutability": "nonpayable",
      "type": "function"
    },
    {
      "constant": true,
      "inputs": [
        {
          "internalType": "bytes32",
          "name": "candidate",
          "type": "bytes32"
        }
      ],
      "name": "totalVotesFor",
      "outputs": [
        {
          "internalType": "uint8",
          "name": "",
          "type": "uint8"
        }
      ],
      "payable": false,
      "stateMutability": "view",
      "type": "function"
    }
  ],
  "bytecode": "0x608060405234801561001057600080fd5b506000600160007fed998deab8b8eb8f990000000000000000000000000000000000000000000000815260200190815260200160002060006101000a81548160ff021916908360ff1602179055506000600160007fec9db4ec9881ec95a00000000000000000000000000000000000000000000000815260200190815260200160002060006101000a81548160ff021916908360ff1602179055506000600160007feca084eca780ed98840000000000000000000000000000000000000000000000815260200190815260200160002060006101000a81548160ff021916908360ff1602179055506000600160007febb095ebb3b4eab2800000000000000000000000000000000000000000000000815260200190815260200160002060006101000a81548160ff021916908360ff1602179055506000600160007fec9ea5eb8f99eab1b40000000000000000000000000000000000000000000000815260200190815260200160002060006101000a81548160ff021916908360ff160217905550610242806101a16000396000f3fe608060405234801561001057600080fd5b50600436106100575760003560e01c8063230d6ed81461005c5780632f265cf71461008a57806360fe47b1146100d25780636d4ce63c14610100578063cc9ab2671461011e575b600080fd5b6100886004803603602081101561007257600080fd5b810190808035906020019092919050505061014c565b005b6100b6600480360360208110156100a057600080fd5b810190808035906020019092919050505061017c565b604051808260ff1660ff16815260200191505060405180910390f35b6100fe600480360360208110156100e857600080fd5b81019080803590602001909291905050506101a6565b005b6101086101b0565b6040518082815260200191505060405180910390f35b61014a6004803603602081101561013457600080fd5b81019080803590602001909291905050506101b9565b005b60006001600083815260200190815260200160002060006101000a81548160ff021916908360ff16021790555050565b60006001600083815260200190815260200160002060009054906101000a900460ff169050919050565b8060008190555050565b60008054905090565b600180600083815260200190815260200160002060008282829054906101000a900460ff160192506101000a81548160ff021916908360ff16021790555061020a60016102046101b0565b016101a6565b5056fea265627a7a723158203bf2fc2d4355dc91a808f140466eabb21e34690d0512ad52a53b44d1b8030ebb64736f6c63430005100032",
  "source": "pragma solidity >=0.4.21 <0.7.0;\n\n\ncontract SimpleStorage {\n    uint256 storedData;\n\n    function set(uint256 x) public {\n        storedData = x;\n    }\n\n    function get() public view returns (uint256) {\n        return storedData;\n    }\n\n    ////////////////////////// vote contract ////////////\n    mapping(bytes32 => uint8) votesReceived;\n\n    constructor() public {\n        votesReceived[\"홍길동\"] = 0;\n        votesReceived[\"이영애\"] = 0;\n        votesReceived[\"전지현\"] = 0;\n        votesReceived[\"박보검\"] = 0;\n        votesReceived[\"장동건\"] = 0;\n    }\n\n    function addCandidate(bytes32 candidate) public {\n        votesReceived[candidate] = 0;\n    }\n\n    function voteForCandidate(bytes32 candidate) public {\n        votesReceived[candidate] += 1;\n        set(get() + 1);\n    }\n\n    function totalVotesFor(bytes32 candidate) public view returns (uint8) {\n        return votesReceived[candidate];\n    }\n}\n",
  "sourcePath": "D:\\multicampus_coding\\blockchain\\ether\\ether_vote2\\contracts\\SimpleStorage.sol",
  "compiler": {
    "name": "solc",
    "version": "0.5.16+commit.9c3226ce.Emscripten.clang"
  },
  "schemaVersion": "3.1.0",
  "updatedAt": "2020-04-18T02:14:47.019Z",
  "networkType": "ethereum",
  "devdoc": {
    "methods": {}
  },
  "userdoc": {
    "methods": {}
  }
}